:020000040000FA
:100000000C9463000C948B000C948B000C94DB0913
:100010000C94DB090C94DB090C948B000C948B0082
:100020000C948B000C948B000C948B000C948B0024
:100030000C948B000C948B000C948B000C948B0014
:100040000C941A080C948B000C948A080C94640885
:100050000C948B000C948B000C948B000C948B00F4
:100060000C94BC080C948B000000000024002700B6
:100070002A0000000008000201000003040700003D
:1000800000000000000000000000230026002900FE
:1000900000000000250028002B00040404040404D0
:1000A0000404020202020202030303030303010227
:1000B00004081020408001020408102001020408F6
:1000C0001020530A320F11241FBECFEFD8E0DEBF3D
:1000D000CDBF25E0A2E1B3E001C01D92A031B2077F
:1000E000E1F713E0A0E0B1E0E8EEF5E202C0059030
:1000F0000D92A231B107D9F710E0C2E6D0E004C0FA
:100100002197FE010E94E110C136D107C9F70E9474
:10011000250B0C94E7120C940000833081F028F436
:10012000813099F08230A9F008958730A9F08830A5
:10013000C9F08430B1F4809180008F7D03C080913C
:1001400080008F7780938000089584B58F7784BD79
:10015000089584B58F7DFBCF8091B0008F77809319
:10016000B00008958091B0008F7DF9CFCF93DF93D9
:10017000282F30E0F901EE58FF4F8491F901E25544
:10018000FF4FD491F901E656FF4FC491CC23A1F063
:1001900081110E948D00EC2FF0E0EE0FFF1FEA5757
:1001A000FF4FA591B491EC91ED2381E090E009F42B
:1001B00080E0DF91CF91089580E090E0FACF1F9327
:1001C000CF93DF93282F30E0F901EE58FF4F849151
:1001D000F901E255FF4FD491F901E656FF4FC49162
:1001E000CC23A9F0162F81110E948D00EC2FF0E096
:1001F000EE0FFF1FE057FF4FA591B4918FB7F89412
:10020000EC91111108C0D095DE23DC938FBFDF91F4
:10021000CF911F910895DE2BF8CFCF93DF9390E01D
:10022000FC01E255FF4F249186569F4FFC018491BB
:100230008823D1F090E0880F991FFC01E859FF4F07
:10024000A591B491FC01E057FF4FC591D491611184
:100250000EC09FB7F8948C91E22FE0958E238C937B
:100260002881E223E8839FBFDF91CF9108958FB764
:10027000F894EC91E22BEC938FBFF6CF3FB7F89454
:100280008091300490913104A0913204B0913304F4
:1002900026B5A89B05C02F3F19F00196A11DB11DE1
:1002A0003FBFBA2FA92F982F8827BC01CD01620F1D
:1002B000711D811D911D42E0660F771F881F991FD8
:1002C0004A95D1F708958F929F92AF92BF92CF92A5
:1002D000DF92EF92FF926B017C010E943E014B0185
:1002E0005C01C114D104E104F104B9F00E943E01A3
:1002F000681979098A099B09683E7340810591054F
:1003000080F321E0C21AD108E108F10888EE880ED6
:1003100083E0981EA11CB11CE4CFFF90EF90DF900A
:10032000CF90BF90AF909F908F90089508950895BB
:100330000895AF92BF92CF92DF92EF92FF920F9308
:100340001F93CF93DF936C017B018B01040F151F6B
:10035000EB015E01AE18BF08C017D10759F06991D3
:10036000D601ED91FC910190F081E02DC601099537
:10037000892B79F7C501DF91CF911F910F91FF90E4
:10038000EF90DF90CF90BF90AF900895FC01538D18
:10039000448D252F30E0842F90E0821B930B54175F
:1003A00010F0CF96089501970895FC01918D828DEC
:1003B000981761F0A28DAE0FBF2FB11D5D968C9185
:1003C000928D9F5F9F73928F90E008958FEF9FEFC4
:1003D0000895FC01918D828D981731F0828DE80F80
:1003E000F11D858D90E008958FEF9FEF0895FC013A
:1003F000918D228D892F90E0805C9F4F821B910907
:100400008F739927089588E394E00E94F70121E013
:10041000892B09F420E0822F08950C940302FC013B
:10042000A48DA80FB92FB11DA35ABF4F2C91848D55
:1004300090E001968F739927848FA689B7892C93B2
:10044000A089B1898C91837080648C93938D848D05
:10045000981306C00288F389E02D80818F7D808308
:100460000895EF92FF920F931F93CF93DF93EC01C8
:1004700081E0888F9B8D8C8D98131AC0E889F9894B
:10048000808185FF15C09FB7F894EE89FF8960834E
:10049000E889F98980818370806480839FBF81E0CF
:1004A00090E0DF91CF911F910F91FF90EF90089511
:1004B000F62E0B8D10E00F5F1F4F0F731127E02EEC
:1004C0008C8D8E110CC00FB607FCFACFE889F98924
:1004D000808185FFF5CFCE010E940F02F1CFEB8D19
:1004E000EC0FFD2FF11DE35AFF4FF0829FB7F894F8
:1004F0000B8FEA89FB8980818062CFCFCF93DF9316
:10050000EC01888D8823B9F0AA89BB89E889F9892B
:100510008C9185FD03C0808186FD0DC00FB607FC60
:10052000F7CF8C9185FFF2CF808185FFEDCFCE0193
:100530000E940F02E9CFDF91CF910895209193039C
:10054000260F3327331F21323105ECF42091DC03D1
:10055000FC0190E080E0243069F082E00895A091F1
:1005600093032191AC014D585C4FA40FB52FB11DE1
:100570002C930196861798F380919303680F6093EC
:10058000930380E0089581E008951092DC0381E0F8
:100590008093DB031092B60361E082E10E94DF00EA
:1005A00061E083E10E94DF00E9EBF0E080818E7F73
:1005B000808380818D7F808388E48093B80085E488
:1005C0008093BC000895CF93DF9391E090937203E2
:1005D0008823B9F0C091B800D091BA008091BC00D6
:1005E0008A7B8093BC0060E082E10E94DF0060E0D3
:1005F00083E10E94DF000E94C502D093BA00C0933D
:10060000B800DF91CF9108950895E0910F04809193
:100610000E04E81730F4F0E0EE5AFC4F808190E0D1
:1006200008958FEF9FEF089590910F0480910E042D
:100630002FEF3FEF981748F4E92FF0E0EE5AFC4F08
:10064000208130E09F5F90930F04C901089580914D
:100650000E0490910F04891B990B0895CF92DF929D
:10066000EF92FF920F931F93CF93DF937C01CB0107
:100670008A012091E203222389F0EB016B01C40E71
:10068000D51ECC15DD0569F06991D701ED91FC917E
:100690000190F081E02DC7010995F3CF642F0E94EE
:1006A0009E02C801DF91CF911F910F91FF90EF90B3
:1006B000DF90CF900895CF93DF931F92CDB7DEB731
:1006C00069832091E2032223F9F020910C04203267
:1006D00058F021E030E0FC013383228390E080E099
:1006E0000F90DF91CF91089580910D04E82FF0E0F5
:1006F000ED51FC4F998190838F5F80930D0480931F
:100700000C0481E090E0ECCF61E0CE0101960E9404
:100710009E02F7CFCF92DF92EF92FF920F931F933B
:10072000CF93DF93FC01C48121E02093E203C093C7
:10073000030410920D0410920C048385682B85ED40
:1007400094E00E945B03D0910C04D13208F092C077
:100750000E943E016B017C018091DC03811165C028
:1007600082E08093DC0381E08093DB038FEF809352
:10077000DA031092D903D093D803A3EEB3E0E8EBE9
:10078000F3E080E0D81385C01092B7038091B703DF
:10079000CC0FC82BC093B7038091B603813009F00A
:1007A0007CC01092B6030E943E016B017C018091D7
:1007B000B7038093BB008091DE039091DF03A0918B
:1007C000E003B091E103892B8A2B8B2B99F00E94D7
:1007D0003E010091DE031091DF032091E003309190
:1007E000E1036C197D098E099F0906171707280771
:1007F0003907E0F18091BC0083FDD9CF85EC80936F
:10080000BC000E943E016B017C018091DC038230C0
:1008100009F445C08091DA038F3F61F18091DA03DA
:10082000803241F18091DA0325C08091DE039091FE
:10083000DF03A091E003B091E103892B8A2B8B2B7E
:1008400009F48ACF0E943E010091DE031091DF037C
:100850002091E0033091E1036C197D098E099F0915
:10086000061717072807390708F076CF8091DD03B0
:100870000E94E30210920D0410920C041092E20305
:10088000DF91CF911F910F91FF90EF90DF90CF906C
:1008900008959D9191938F5F75CF85EEB0CF809134
:1008A000DE039091DF03A091E003B091E103892B77
:1008B0008A2B8B2B09F4A9CF0E943E010091DE0305
:1008C0001091DF032091E0033091E1036C197D0961
:1008D0008E099F09061717072807390708F095CFD3
:1008E000C5CF20910604309107042817390771F409
:1008F0009091040480910504981741F0E09104045C
:10090000F0E0EE5EFC4F808190E008958FEF9FEF66
:100910000895EF92FF920F931F93CF93DF93DC0123
:100920005C96ED90FC905D97E114F10479F481E020
:1009300090E013969C938E93129790E080E0DF9165
:10094000CF911F910F91FF90EF9008955196ED91E7
:10095000FC91529750968C915097982F90950FB785
:100960005E962C915E97122F127021FD6095F8947F
:100970002081112319F1282B2083E7012197F1F71A
:1009800028E0462F50E0308160FF1AC0382B3083BA
:10099000E7012197F1F7BA0175956795215089F71D
:1009A000112381F08081892380830FBF5C968D9114
:1009B0009C910197F1F781E090E0C1CF2923DCCF32
:1009C0003923E5CF9081892BEFCF20910604309118
:1009D00007042817390761F4809105042091040465
:1009E00090E0805C9F4F821B91098F739927089537
:1009F00090E080E0089520910604309107042817C4
:100A00003907B9F49091040480910504981789F08E
:100A1000E0910404F0E0EE5EFC4F8081209104043C
:100A200030E02F5F3F4F2F7333272093040490E073
:100A300008958FEF9FEF0895089590E080E0089566
:100A400064EF71E080E090E00E94630188E394E04D
:100A50000E94F701892B51F088E394E00E94D501B0
:100A6000682F8DEE94E00E948904F0CF8DEE94E023
:100A70000E94E504892B51F08DEE94E00E94FB0466
:100A8000682F88E394E00E943102F0CF08950F931D
:100A90001F93CF938C01C62F0E948A036C2F646032
:100AA000C8010E948A036C2F6B7FC8010E948A03D1
:100AB00083EC90E00197F1F7CF911F910F9108958A
:100AC0000F931F93CF93DF938C01D62FC42F607F9A
:100AD000642B0E94470580E1D89FB00111246C2B44
:100AE000C801DF91CF911F910F910C944705CF93CF
:100AF000DF93CDB7DEB728970FB6F894DEBF0FBEF1
:100B0000CDBF98E0E3E1F1E0DE01119601900D9296
:100B10009A95E1F79091E904981708F48FEF90E027
:100B2000880F991F21E030E02C0F3D1F820F931F8B
:100B3000FC016081606840E081EE94E028960FB689
:100B4000F894DEBF0FBECDBFDF91CF910C9460054E
:100B500041E00E94600581E090E00895FB01019072
:100B60000020E9F73197AF01461B570BDC01ED91EF
:100B7000FC910280F381E02D09948F929F92AF92B5
:100B8000BF92CF92DF92EF92FF920F931F93CF937A
:100B9000DF93CDB7DEB7A1970FB6F894DEBF0FBED7
:100BA000CDBF6C01990FEE08FF08F7FE4BC06DE258
:100BB00088E394E00E9431028C0122273327A901A7
:100BC0002C193D094E095F0919A2CE0181967C01BD
:100BD0009AE0892E912CA12CB12CCA01B901A50152
:100BE00094010E94BF10605DF70162937F0121159F
:100BF00031054105510589F790E080E0309729F0F3
:100C0000BF0188E394E00E94AE05080F191F6EE64D
:100C100071E088E394E00E94AE05800F911FA196D9
:100C20000FB6F894DEBF0FBECDBFDF91CF911F91FD
:100C30000F91FF90EF90DF90CF90BF90AF909F907B
:100C40008F900895A701960119A28E010F5D1F4F85
:100C50008AE0C82ED12CE12CF12CCA01B901A701E0
:100C600096010E94BF10605DF80162938F0121150B
:100C700031054105510589F7309739F0BF0188E307
:100C800094E00E94AE058C01C2CF10E000E0BFCF1F
:100C90000F931F93CF93DF93EC010E94AE058C015D
:100CA0006EE671E0CE010E94AE05800F911FDF91CC
:100CB000CF911F910F9108950F931F93CF93DF93BF
:100CC000EC01FB014481558160817181E881F981EA
:100CD0000280F381E02D09958C016EE671E0CE0172
:100CE0000E94AE05800F911FDF91CF911F910F9150
:100CF00008956F927F928F929F92AF92BF92CF9200
:100D0000DF92EF92FF920F931F93CF93DF936C01CB
:100D10007B01B60188E394E00E945C06B6018DEE8B
:100D200094E00E945C0668EE73E080E090E00E9430
:100D300063018DEE94E00E94E504892B09F4A4C0C0
:100D40008DEE94E00E94FB04682F88E394E00E94FB
:100D50003102F70101900020E9F731978F010E1958
:100D60001F0909F05FC0B70188E394E00E944806BC
:100D700068EE73E080E090E0DF91CF911F910F91DA
:100D8000FF90EF90DF90CF90BF90AF909F908F90AB
:100D90007F906F900C946301C1E0D0E02FB7F8947E
:100DA0008091340490913504A0913604B0913704B9
:100DB0002FBF8093F5049093F604A093F704B093AB
:100DC000F8048DEE94E00E94FB0497FF64C02FB7F7
:100DD000F8948091340490913504A0913604B09138
:100DE00037042FBF4091F5045091F6046091F70449
:100DF0007091F804841B950BA60BB70B4091F1047E
:100E00005091F2046091F3047091F40484179507F3
:100E1000A607B707B0F26DE571E088E394E00E94A1
:100E2000480687CFD0E0C0E0B9CF209709F4B6CF0D
:100E30003F01BC2EAD2E2197D3012E913D01022EF4
:100E4000000C330B2817390719F0209791F7A6CF1C
:100E5000209709F4A1CFA701BF016C1B7D0B30E0E7
:100E600020E0DA019D90AD01DB018D90BD0189107C
:100E700005C02F5F3F4F2C173D0798F32C173D07F8
:100E8000C1F6CB2DDA2D8ACF68EE73E080E090E0DA
:100E90000E9463013ECFF701EC0FFD1F2081022E5F
:100EA000000C330B2817390709F0BFCF2196C01764
:100EB000D10709F073CF57CF0C94AE05CF93DF93D2
:100EC000EC0163E671E08DEE94E00E945C0760E067
:100ED00071E08DEE94E00E945C076DE671E08DEEAE
:100EE00094E00E94480664EF71E080E090E00E9488
:100EF0006301BE018DEE94E00E94480664EF71E04C
:100F000080E090E00E9463016AE18DEE94E00E942F
:100F1000890468E873E180E090E0DF91CF910C9460
:100F20006301FC0180819181009711F00C94831181
:100F30000895EF92FF920F931F93CF93DF93EC01ED
:100F40007B01198218821B821A821D821C82FB017E
:100F500001900020E9F731978F01061B170BB801AC
:100F60006F5F7F4F90E080E00E940C120097B9F015
:100F7000998388831B830A832C813D81232B11F461
:100F8000FC0110821D830C83B70188819981DF9158
:100F9000CF911F910F91FF90EF900C94D212888106
:100FA0009981009711F00E948311198218821D8285
:100FB0001C821B821A82DF91CF911F910F91FF90AB
:100FC000EF90089585ED8093BC008091DE039091B1
:100FD000DF03A091E003B091E1030796A11DB11DCD
:100FE00023E0B695A795979587952A95D1F72091F7
:100FF000BC0024FD03C01092DC0308954091DE0381
:101000005091DF036091E0037091E103452B462B83
:10101000472B69F30097A105B10541F02AE22A9513
:10102000F1F700C00197A109B109E1CF8091DD037B
:101030000C94E3021F920F920FB60F9211242F937C
:101040003F938F939F93AF93BF938091340490917C
:101050003504A0913604B091370430912F0423E079
:10106000230F2D3758F50196A11DB11D20932F0494
:101070008093340490933504A0933604B0933704DE
:101080008091300490913104A0913204B0913304E6
:101090000196A11DB11D8093300490933104A0935B
:1010A0003204B0933304BF91AF919F918F913F91E0
:1010B0002F910F900FBE0F901F90189526E8230FC9
:1010C0000296A11DB11DD2CF1F920F920FB60F92A3
:1010D00011242F933F934F935F936F937F938F933D
:1010E0009F93AF93BF93EF93FF9388E394E00E94A5
:1010F0000F02FF91EF91BF91AF919F918F917F91DF
:101100006F915F914F913F912F910F900FBE0F9074
:101110001F9018951F920F920FB60F9211242F93C4
:101120008F939F93EF93FF93E0914804F0914904CC
:101130008081E0914E04F0914F0482FD1BC09081AC
:10114000809151048F5F8F7320915204821741F078
:10115000E0915104F0E0E85CFB4F958F80935104DF
:10116000FF91EF919F918F912F910F900FBE0F9054
:101170001F9018958081F4CF1F920F920FB60F9297
:1011800011242F933F934F935F936F937F938F938C
:101190009F93AF93BF93EF93FF938091B900887FA4
:1011A000803609F44AC0F0F5883209F4A7C018F572
:1011B000803109F49BC0B8F4882309F4F9C0883061
:1011C00009F494C0FF91EF91BF91AF919F918F91DE
:1011D0007F916F915F914F913F912F910F900FBE33
:1011E0000F901F901895883109F488C0803251F70C
:1011F0008093DA0314C0803409F49DC040F4803336
:10120000B9F38833F9F68093DA0385ECB0C0803502
:1012100009F485C0883509F496C0883499F60E948F
:10122000E207D0CF883909F48CC038F5883729F027
:1012300050F4883611F0803729F683E08093DC0380
:101240001092B50357C0883809F47BC0803919F073
:10125000803809F0B7CF8091B503803208F071C0B3
:10126000E091B50381E08E0F8093B5038091BB00C0
:10127000F0E0EB56FC4F80833DC0803B39F0E0F45A
:10128000803A09F479C0883A09F09CCF84E08093D1
:10129000DC031092940310929303E0910A04F091FE
:1012A0000B0409958091930381110FC081E0809315
:1012B00093031092730309C0803C09F4A6CF883CC5
:1012C00009F4A3CF883B09F07DCFE091940381E03E
:1012D0008E0F80939403F0E0ED58FC4F8081809353
:1012E000BB00909194038091930329C08091B70330
:1012F0008093BB0085EC8093BC0064CF9091D903B0
:101300008091D803981758F5E091D90381E08E0FAA
:101310008093D903F0E0E854FC4F8081E9CFE0915D
:10132000D90381E08E0F8093D9038091BB00F0E058
:10133000E854FC4F80839091D9038091D80398178B
:10134000C8F285E8D8CFE091D90381E08E0F809371
:10135000D9038091BB00F0E0E854FC4F808380917A
:10136000DB0381115CCF81E08093B60384EA809334
:10137000BC001092DC0326CF85EC8093BC00109259
:10138000DC038091B503803230F4E091B503F0E0E6
:10139000EB56FC4F10826091B50370E0E0910804B9
:1013A000F091090485E993E009951092B5030ACFFD
:1013B0001092DA0334CF1F920F920FB60F921124BE
:1013C0002F933F934F935F936F937F938F939F934D
:1013D000AF93BF93EF93FF93E0910604F09107045E
:1013E000309749F0A685B7858585968D91FF14C005
:1013F0009C918923A1F4FF91EF91BF91AF919F91AF
:101400008F917F916F915F914F913F912F910F90AD
:101410000FBE0F901F9018959C91892361F7A389A7
:10142000B4899C918589809589238C938689978935
:101430000197F1F7608D718DA685B785558538E0E8
:1014400020E0CB010197F1F7822F90E095958795E9
:10145000282F4C91452309F02068315091F7868D53
:1014600081FD20958091050490E001968F73992766
:1014700030910404381799F0A0910504B0E0AE5EF5
:10148000BC4F2C9380930504828D938D0197F1F7C7
:10149000A389B4898C919589892B8C93ACCF868D47
:1014A0008160868FF1CF10923B0410923A0488EE4F
:1014B00093E0A0E0B0E080933C0490933D04A093BF
:1014C0003E04B0933F042FE131E030933904209380
:1014D000380425EC30E0309345042093440424EC98
:1014E00030E0309347042093460420EC30E0309302
:1014F00049042093480421EC30E030934B042093BE
:101500004A0422EC30E030934D0420934C0426EC46
:1015100030E030934F0420934E0410925104109207
:10152000520410925304109254041092D804109252
:10153000D7048093D9049093DA04A093DB04B0938A
:10154000DC0421E331E03093D6042093D5041092DB
:10155000F0041092EF048093F1049093F204A093AE
:10156000F304B093F4048FE491E09093EE0480933D
:10157000ED041092040510920305109206051092D6
:101580000505109208051092070510920A051092A1
:10159000090560910B056E7F6D7F60930B05669565
:1015A000617081E068278CE00E94DF0061E08CE0E0
:1015B0000E940D01EAEBF0E0E491E093FD04E6EA1D
:1015C000F0E0E491F0E0EE0FFF1FE057FF4F859150
:1015D00094919093FF048093FE0460E08BE00E945E
:1015E0000D0180910B0581FD04C061E08BE00E943C
:1015F000DF008BE08093F904E9EBF0E0E491E09305
:10160000FA04E5EAF0E0E491F0E0EE0FFF1FEA579C
:10161000FF4F859194919093FC048093FB0410926A
:10162000E4041092E30483E491E09093E204809355
:10163000E10487E28093E50480E18093EA0482E09C
:101640008093EB041092EC040895CF93DF9300D0C5
:1016500000D000D0CDB7DEB7789484B5826084BD69
:1016600084B5816084BD85B5826085BD85B58160A6
:1016700085BD80916E00816080936E001092810024
:1016800080918100826080938100809181008160DF
:1016900080938100809180008160809380008091A0
:1016A000B10084608093B1008091B000816080932C
:1016B000B00080917A00846080937A0080917A00F3
:1016C000826080937A0080917A00816080937A00B2
:1016D00080917A00806880937A001092C100E09136
:1016E0004804F091490482E08083E0914404F09141
:1016F00045041082E0914604F09147048FEC80830A
:1017000010925004E0914C04F0914D0486E08083E7
:10171000E0914A04F0914B04808180618083E091E4
:101720004A04F0914B04808188608083E0914A04F0
:10173000F0914B04808180688083E0914A04F091AD
:101740004B0480818F7D80831092080510920705DD
:1017500010920605109205051092040510920305DB
:101760008DE991E090930A05809309059091F90421
:10177000963108F047C02DEB30E0309304052093FC
:1017800003052BE931E030930605209305052CE293
:1017900031E030930805209307052091680084E02C
:1017A000983048F031E09E3008F430E081E001C02C
:1017B000880F3A95EAF7822B809368002DE630E097
:1017C000983050F02BE630E09E3030F02CE630E0E0
:1017D000963110F030E020E03093010520930005B1
:1017E000292F30E0983008F0C6C281E001C0880F90
:1017F0009A95EAF7809302058091090590910A0570
:101800000197F1F78091070590910805892B49F11F
:10181000E0910604F091070484E0ED3EF80709F139
:10182000309739F0A389B4899C9185898095892363
:101830008C9380910B058E7F80930B05109205048D
:10184000109204048DEE94E09093070480930604B4
:10185000E0910005F0910105808190910205892BAE
:10186000808310920F0410920E0410920D041092B7
:101870000C040E94C50287E991E090930B048093C9
:101880000A0488E991E09093090480930804109277
:10189000E6048091EB04823018F098E09093E6041F
:1018A0008093E90462E370E080E090E00E946301CD
:1018B0006091EC0481EE94E00E948A0368EE73E08C
:1018C00080E090E00E94630160E381EE94E00E947A
:1018D00047050BE416E4C8010197F1F760E381EED8
:1018E00094E00E944705C8010197F1F760E381EE9B
:1018F00094E00E94470583E592E00197F1F760E2EA
:1019000081EE94E00E9447056091E604606240E049
:1019100081EE94E00E94600584E08093E70440E05B
:101920006CE081EE94E00E94600540E061E081EEB1
:1019300094E00E9460050BE31FE1C8010197F1F7F5
:1019400082E08093E80440E066E081EE94E00E944B
:10195000600540E062E081EE94E00E946005C8010D
:101960000197F1F788E08093EC0460E081EE94E069
:101970000E948A0360E082E00E940D0160E083E043
:101980000E940D0161E085E00E940D0161E089E0A7
:101990000E940D0161E08AE00E940D0161E086E095
:1019A0000E940D0160E088E00E940D0161E771E096
:1019B00088E394E00E94480668EE73E080E090E0DF
:1019C0000E94630161E871E0CE0101960E949907CF
:1019D00064E871E0CE0101960E947906CE0101967D
:1019E0000E94910767E871E0CE0101960E94990775
:1019F00064E871E0CE0101960E947906CE0101965D
:101A00000E9491076CE871E0CE0101960E9499074F
:101A100065E971E0CE0101960E947906CE0101963A
:101A20000E9491076BE971E0CE0101960E9499072F
:101A300064E871E0CE0101960E947906CE0101961C
:101A40000E94910765EA71E0CE0101960E94990714
:101A500064E871E0CE0101960E947906CE010196FC
:101A60000E94910767EB71E088E394E00E944806CA
:101A700080ED91E00E945E0781E090E00E9472108C
:101A800090E0909324048093230482E090E00E94ED
:101A9000721090E0909322048093210480E00E94D1
:101AA00077056CEE71E081EE94E00E945C0781E0C6
:101AB0000E94770560E072E081EE94E00E945C078E
:101AC00060ED77E080E090E00E94630140E061E03B
:101AD00081EE94E00E946005C8010197F1F765EA84
:101AE00071E088E394E00E94480664EF71E080E0D2
:101AF00090E00E9463016BE971E088E394E00E944A
:101B0000480668EE73E080E090E00E94630180E4A4
:101B1000D82EEE24E394F12C0E94200580912D0410
:101B200090912E04019751F410922E0410922D04DE
:101B300068EE73E080E090E00E94630182E00E9422
:101B4000B60090932C0480932B04D0927C0080915B
:101B50007A00806480937A0080917A0086FDFCCFC1
:101B6000809178009091790090932A0480932904C1
:101B700088E00E94B6009093280480932704809107
:101B80002B0490912C040E94BD0580912904909112
:101B90002A040E94BD0580912704909128040E9488
:101BA000BD0564E670E080E090E00E9463018091F2
:101BB0002B0490912C04892B29F1609129047091B8
:101BC0002A04072E000C880B990B0E94550F20E069
:101BD00030E040EA50E40E94B40F20E030E040E8FA
:101BE0005AE30E94B40F20E030E040E85FE30E9437
:101BF0004E0F882339F08091270490912804892B77
:101C000009F0C6C06DE772E088E394E00E945C07CB
:101C100068EE73E080E090E00E94630162E172E0B0
:101C200088E394E00E945C0761E085E00E94DF00A9
:101C300061E086E00E94DF0080E00E9477056DE1B0
:101C400072E081EE94E00E945C0781E00E947705DB
:101C500061E372E081EE94E00E945C0780912504CC
:101C600090912604892B91F5F0922604E0922504A8
:101C70008091230490912404019721F480E492E060
:101C80000E945E0768EE73E080E090E00E946301CE
:101C900080912104909122040197C1F46FE572E0D4
:101CA0008DEE94E00E945C0760E071E08DEE94E0C0
:101CB0000E945C0765E672E08DEE94E00E944806A3
:101CC00068EE73E080E090E00E94630168EE73E0EC
:101CD00080E090E00E94630167E672E088E394E0B0
:101CE0000E945C0768EE73E080E090E00E94630170
:101CF0006FE772E088E394E00E945C0768EE73E0AF
:101D000080E090E00E9463016AE188E394E00E9431
:101D1000310200911F041091200401301105E1F4FB
:101D200046E050E068EA72E080E194E00E94D91257
:101D3000892B09F054C0109324040093230461E01C
:101D400081E090E00E947A108FEA92E00E945E07A4
:101D50001092200410921F0410912304612F8AE036
:101D60000E94DF00612F89E00E94DF000E942005B1
:101D70000E940302D1CE9E3040F42850310981E008
:101D800001C0880F2A95EAF735CD2E503109F7CFDB
:101D900060E085E00E94DF0060E086E00E94DF00F6
:101DA00080E00E9477056AE872E081EE94E00E948C
:101DB0005C0781E00E94770569E972E081EE94E0BA
:101DC0000E945C0760E086E00E94DF0060E085E042
:101DD0000E94DF0010922604109225049ACF47E05B
:101DE00050E061EC72E080E194E00E94D912892B0E
:101DF00061F4109224041092230460E081E090E0EA
:101E00000E947A1089EC92E0A1CF47E050E06FED9C
:101E100072E080E194E00E94D912892B61F4109362
:101E200022040093210461E082E090E00E947A1095
:101E300087EE92E08BCF48E050E066EF72E080E101
:101E400094E00E94D912892B09F082CF10922204CB
:101E50001092210460E082E090E00E947A108FEFFF
:101E600092E074CF8FE491E09093EE048093ED04C0
:101E700080910604909107048D5E944071F4E09186
:101E80000005F091010590818091020580958923DC
:101E90008083109207041092060408950E94900F08
:101EA00008F481E00895E89409C097FB3EF490950A
:101EB0008095709561957F4F8F4F9F4F9923A9F023
:101EC000F92F96E9BB279395F695879577956795B2
:101ED000B795F111F8CFFAF4BB0F11F460FF1BC0F6
:101EE0006F5F7F4F8F4F9F4F16C0882311F096E989
:101EF00011C0772321F09EE8872F762F05C0662337
:101F000071F096E8862F70E060E02AF09A95660FEF
:101F1000771F881FDAF7880F9695879597F90895A8
:101F2000990F0008550FAA0BE0E8FEEF16161706EA
:101F3000E807F907C0F012161306E407F50798F052
:101F4000621B730B840B950B39F40A2661F0232B6B
:101F5000242B252B21F408950A2609F4A140A695E7
:101F60008FEF811D811D08950E94C70F0C943810BA
:101F70000E942A1038F00E94311020F0952311F0B1
:101F80000C9421100C94271011240C946C100E94B6
:101F9000491070F3959FC1F3950F50E0551F629F54
:101FA000F001729FBB27F00DB11D639FAA27F00DB2
:101FB000B11DAA1F649F6627B00DA11D661F829FD9
:101FC0002227B00DA11D621F739FB00DA11D621FBE
:101FD000839FA00D611D221F749F3327A00D611DDB
:101FE000231F849F600D211D822F762F6A2F1124BD
:101FF0009F5750409AF0F1F088234AF0EE0FFF1FF0
:10200000BB1F661F771F881F91505040A9F79E3F46
:10201000510580F00C9421100C946C105F3FE4F398
:10202000983ED4F3869577956795B795F795E7959C
:102030009F5FC1F7FE2B880F911D9695879597F9A5
:10204000089597F99F6780E870E060E008959FEF3A
:1020500080EC089500240A9416161706180609063F
:10206000089500240A94121613061406050608950E
:10207000092E0394000C11F4882352F0BB0F40F496
:10208000BF2B11F460FF04C06F5F7F4F8F4F9F4FD6
:10209000089557FD9058440F551F59F05F3F71F058
:1020A0004795880F97FB991F61F09F3F79F08795BF
:1020B0000895121613061406551FF2CF4695F1DF48
:1020C00008C0161617061806991FF1CF86957105D8
:1020D000610508940895E894BB2766277727CB010C
:1020E00097F90895F999FECF92BD81BDF89A992785
:1020F00080B50895262FF999FECF1FBA92BD81BDF4
:1021000020BD0FB6F894FA9AF99A0FBE0196089579
:102110002F923F924F925F926F927F928F929F92F7
:10212000AF92BF92CF92DF92EF92FF920F931F93E5
:10213000CF93DF93CDB7DEB7CA1BDB0B0FB6F89496
:10214000DEBF0FBECDBF09942A88398848885F84D6
:102150006E847D848C849B84AA84B984C884DF8047
:10216000EE80FD800C811B81AA81B981CE0FD11D2B
:102170000FB6F894DEBF0FBECDBFED010895A1E20A
:102180001A2EAA1BBB1BFD010DC0AA1FBB1FEE1FF1
:10219000FF1FA217B307E407F50720F0A21BB30B3C
:1021A000E40BF50B661F771F881F991F1A9469F7B8
:1021B00060957095809590959B01AC01BD01CF0114
:1021C0000895EE0FFF1F0590F491E02D09940F93F1
:1021D0001F93CF93DF938230910510F482E090E05B
:1021E000E0910E05F0910F0530E020E0B0E0A0E0B6
:1021F000309799F42115310509F44AC0281B390B91
:1022000024303105D8F58A819B816115710589F1EA
:10221000FB0193838283FE0111C0408151810281C1
:10222000138148175907E0F04817590799F4109798
:1022300061F012960C93129713961C933296CF016D
:10224000DF91CF911F910F91089500930E05109388
:102250000F05F4CF2115310551F04217530738F01F
:10226000A901DB019A01BD01DF01F801C1CFEF0136
:10227000F9CF90930F0580930E05CDCFFE01E20FAD
:10228000F31F819391932250310939832883D7CF4B
:1022900020910C0530910D05232B41F420910F0165
:1022A0003091100130930D0520930C0520910D0104
:1022B00030910E012115310541F42DB73EB7409103
:1022C000110150911201241B350BE0910C05F09186
:1022D0000D05E217F307A0F42E1B3F0B2817390753
:1022E00078F0AC014E5F5F4F2417350748F04E0F72
:1022F0005F1F50930D0540930C05819391939FCFE1
:10230000F0E0E0E09CCFCF93DF930097E9F0FC0191
:10231000329713821282A0910E05B0910F05ED0144
:1023200030E020E01097A1F420813181820F931FCB
:1023300020910C0530910D052817390709F061C06F
:10234000F0930D05E0930C05DF91CF910895EA011C
:10235000CE17DF07E8F54A815B819E0141155105E3
:10236000B1F7E901FB83EA8349915991C40FD51F65
:10237000EC17FD0761F4808191810296840F951F0F
:10238000E90199838883828193819B838A83F0E02A
:10239000E0E012968D919C9113970097B9F52D91DD
:1023A0003C911197CD010296820F931F20910C054D
:1023B00030910D052817390739F6309751F51092ED
:1023C0000F0510920E05B0930D05A0930C05BCCF20
:1023D000D383C28340815181840F951FC817D907C9
:1023E00061F44E5F5F4F88819981480F591F518377
:1023F00040838A819B81938382832115310509F073
:10240000B0CFF0930F05E0930E059ECFFD01DC01E8
:10241000C0CF13821282D7CFB0E0A0E0E2E1F2E1B8
:102420000C948A108C01009751F4CB010E94E710A4
:102430008C01C801CDB7DEB7E0E10C94A610FC0119
:10244000E60FF71F9C0122503109E217F30708F449
:102450009DC0D901CD91DC911197C617D70798F08F
:10246000C530D10530F3CE0104978617970708F3DE
:10247000C61BD70B2297C193D1936D937C93CF0149
:102480000E948311D6CF5B01AC1ABD0A4C018C0EA1
:102490009D1EA0910E05B0910F05512C412CF12CE1
:1024A000E12C109731F580910C0590910D05881560
:1024B000990509F05CC04616570608F058C080918F
:1024C0000D0190910E01009741F48DB79EB7409198
:1024D000110150911201841B950BE817F90708F0C0
:1024E00055C0F0930D05E0930C05F90171836083ED
:1024F000A0CF8D919C91119712966C901297139684
:102500007C901397A815B90559F56C0142E0C40EEB
:10251000D11CCA14DB0420F1AC014A195B09DA01B1
:102520001296159780F06282738251834083D9019D
:102530006D937C93E114F10471F0D7011396FC9331
:10254000EE93129776CF22968C0F9D1FF9019183FF
:102550008083F301EFCFF0930F05E0930E0569CF71
:102560004816590608F42C017D01D3019ACFCB01FE
:102570000E94E7107C01009749F0AE01B8010E946B
:10258000C912C8010E948311870153CF10E000E0F7
:1025900050CFFB01DC0102C001900D924150504030
:1025A000D8F70895FB01DC0101900D920020E1F7BE
:1025B0000895FB01DC014150504030F08D910190B5
:1025C000801919F40020B9F7881B990B089510E0C1
:1025D000C2E6D0E004C0FE010E94E1102196C3369D
:1025E000D107C9F7F894FFCF2B3834393733393155
:1025F0003530333500000010058000000040001425
:102600000054000000000031029901C6017E02F76B
:1026100001D501E901000000005B032E031D050444
:102620000327031403050300000000A80599011DFA
:10263000051C0500000000890499011D050403E53F
:1026400004FB0471044572726F720041542B434DB8
:1026500047533D2200220D0A00496E697469616C7E
:10266000697A696E672E2E2E004154004F4B00414F
:102670005445310041542B4350494E3F005245418F
:1026800044590041542B434D47463D310041542BA2
:10269000434E4D493D322C322C302C302C300049E9
:1026A0006E697469616C697A6564205375636365EA
:1026B000737366756C6C7900537461727420475340
:1026C0004D204669726520416C65727420537973A0
:1026D00074656D002047534D204261736520466943
:1026E0007265202020202000205365637572697474
:1026F000792053797374656D200041542B434D4705
:10270000463D310D0020466972652044657465635D
:102710007465642020202020002020204265205362
:10272000616665202020200046697265206973205B
:10273000446574656374656420416C6572742E2E03
:102740002E2E2E21212100415444202B003B0041FC
:10275000542B434D47533D222B38343937333931CD
:1027600035303335220D004669726520416C657243
:102770007400202046495245204E4F5420202020EE
:102780000020204445544543544544202020200047
:10279000536D73204F6E004D6573736167652069DB
:1027A000732041637469766500536D73204F6666CC
:1027B000004D6573736167652069732044656163CB
:1027C0007469766174650043616C6C204F6E0043E0
:1027D000616C6C20697320416374697665004361A4
:1027E0006C6C204F66660043616C6C2069732044FA
:0A27F0006561637469766174650029
:107E0000112484B714BE81FFF0D085E080938100F7
:107E100082E08093C00088E18093C10086E0809377
:107E2000C20080E18093C4008EE0C9D0259A86E02C
:107E300020E33CEF91E0309385002093840096BBD3
:107E4000B09BFECF1D9AA8958150A9F7CC24DD24C4
:107E500088248394B5E0AB2EA1E19A2EF3E0BF2EE7
:107E6000A2D0813461F49FD0082FAFD0023811F036
:107E7000013811F484E001C083E08DD089C08234E0
:107E800011F484E103C0853419F485E0A6D080C0E4
:107E9000853579F488D0E82EFF2485D0082F10E0AE
:107EA000102F00270E291F29000F111F8ED06801E7
:107EB0006FC0863521F484E090D080E0DECF843638
:107EC00009F040C070D06FD0082F6DD080E0C81688
:107ED00080E7D80618F4F601B7BEE895C0E0D1E017
:107EE00062D089930C17E1F7F0E0CF16F0E7DF06D8
:107EF00018F0F601B7BEE89568D007B600FCFDCFD4
:107F0000A601A0E0B1E02C9130E011968C91119780
:107F100090E0982F8827822B932B1296FA010C0160
:107F200087BEE89511244E5F5F4FF1E0A038BF0790
:107F300051F7F601A7BEE89507B600FCFDCF97BE46
:107F4000E89526C08437B1F42ED02DD0F82E2BD052
:107F50003CD0F601EF2C8F010F5F1F4F84911BD097
:107F6000EA94F801C1F70894C11CD11CFA94CF0C13
:107F7000D11C0EC0853739F428D08EE10CD085E9AC
:107F80000AD08FE07ACF813511F488E018D01DD067
:107F900080E101D065CF982F8091C00085FFFCCF94
:107FA0009093C60008958091C00087FFFCCF809118
:107FB000C00084FD01C0A8958091C6000895E0E648
:107FC000F0E098E1908380830895EDDF803219F02E
:107FD00088E0F5DFFFCF84E1DECF1F93182FE3DFCA
:107FE0001150E9F7F2DF1F91089580E0E8DFEE27F6
:047FF000FF270994CA
:027FFE00040479
:00000001FF
